:100F5A000A128A11B02F031383128501031783160D
:100F6A008801031383168501031383120310D12703
:100F7A00FA27D427FA27D727FA27DA27FA27DD27E5
:100F8A00FA27E027FA27E327FA27E627FA27E927A5
:100F9A00FA27EC27FA27BC2F7E308500080030306C
:100FAA00850008006D30850008007930850008004A
:100FBA003330850008005B30850008005F3085000B
:100FCA0008007030850008007F30850008007B30FB
:100FDA0085000800FF30A200A20BF12F0800FF30A5
:100FEA00A100EF27A10BF62F08000830A000F42774
:060FFA00A00BFC2F080013
:04400E00C418FF3F94
:00000001FF
